:100000000C9486010C94B7010C94B7010C94B701C1
:100010000C94B7010C94B7010C94B7010C94B70180
:100020000C94B7010C946D100C946D100C946D1021
:100030000C94B7010C94030F0C94B7010C94B70106
:100040000C94B7010C94B7010C94B7010C94B70150
:100050000C94B7010C94B7010C94B7010C942310C5
:100060000C94B7010C94ED0F0C94C30F0C94B701D2
:100070000C94B7010C94B7010C94B7010C94B70120
:100080000C94B7010C94B7010C94B7010C94B70110
:100090000C948D0F0C94630F0C94B7010C94D41036
:1000A0000C94B7010C94B7010C94B7010C94B701F0
:1000B0000C94B7010C94B7010C94B7010C94B701E0
:1000C0000C94B7010C94B7010C94B7010C94B701D0
:1000D0000C94B7010C94B7010C94B7010C94B701C0
:1000E0000C94B7010C94DF010C94A9160C94A40392
:1000F0000C94B1090C94BE1B0C9496030C94A71697
:100100000C94F5190C94AE030C946F020C947D02C0
:100110000C94E9030C940C030C944C020C94631B98
:100120000C945A090C9429070C94E0010C94101AB1
:100130000C94A3160C9478040C9489030C94A516C3
:100140000C94C0140C94C9140C941F020C94BF029C
:100150000C941F1C0C94111B0C9485030C947D03B0
:100160000C946A090C9492030C949C030C94EC0775
:100170000C9481030C9484090C9477030C949C16C2
:100180000C94B2030C94961B0C94AA030C94BC031D
:100190000C94AB160C94BF1A0C94330A0C94B7034E
:1001A0000C94A0030C945F1A0C948C030C94951679
:1001B0000C945B090C94B8030C942C0A0C947D09E4
:1001C0000C945B020C94F81100002100240027001D
:1001D0002A002D0030003300010100000401070156
:1001E0000A01000020002300260029002C002F0017
:1001F00032000001000003010601090100000A0BA2
:1002000002090C0D0E0807030401000000000000A5
:1002100000000000000000000000000000000000DE
:10022000000000000000000012111000000000009B
:1002300000000000000000000000000000000000BE
:10024000000030313A31373A313300417072203298
:1002500034203230323400010210202008081020EF
:100260004010204080020102010804020101020442
:100270000810204080804020100804020180040201
:100280000180402010080402010804020101020458
:100290000810204080010204081020408000002245
:1002A00000250028002B002E003100340002010040
:1002B00000050108010B01050505050705080808EB
:1002C00008020202020A0A080804040404010101E7
:1002D00001010101010303030303030303040707EF
:1002E000070C0C0C0C0C0C0C0C020202020606068D
:1002F00006060606060B0B0B0B0B0B0B0B021F1C4B
:100300001F1E1F1E1F1F1E1F1E00F81111241FBEBF
:10031000CFEFD1E2DEBFCDBF00E00CBF27E0A0E110
:10032000B3E001C01D92A730B207E1F713E0A0E0EF
:10033000B2E0E4EBFEE300E00BBF02C007900D92D9
:10034000A031B107D9F711E0C6E8D1E000E006C05E
:1003500021970109802FFE010E941D1DC538D1077C
:1003600080E00807A9F70E943B130C94581F0C94D7
:100370000000FC01A089B18982E08C93A485B58539
:100380001C92A685B7858FEC8C93108EA489B589B5
:100390006C93A289B3898C9180618C93A289B38973
:1003A0008C9188608C93A289B3898C9180688C939E
:1003B0000288F389E02D80818F7D808308950895E0
:1003C0000895482FE8E6F5E020E08FEF9FEF24172F
:1003D00091F03191832738E0BC01617077279695C1
:1003E0008795672B21F051E0852750EA95273150FA
:1003F00099F72F5FECCF089596E0899FD0011124E3
:10040000AF57B94F90967C936E935F9791E091961A
:100410009C939197E091EE06F091EF069091ED0696
:10042000992339F0309751F0811108C080919D06D1
:100430001994309719F05C968C91FACF0895AF9289
:10044000BF92CF92DF92EF92FF920F931F93CF93C1
:10045000DF936C017B018B01040F151FEB015E0123
:10046000AE18BF08C017D10759F06991D601ED91B8
:10047000FC910190F081E02DC6011995892B79F747
:10048000C501DF91CF911F910F91FF90EF90DF9009
:10049000CF90BF90AF900895FC01538D448D252FD0
:1004A00030E0842F90E0821B930B541710F0CF960E
:1004B000089501970895FC01918D828D981761F040
:1004C000A28DAE0FBF2FB11D5D968C91928D9F5F57
:1004D0009F73928F90E008958FEF9FEF0895FC0136
:1004E000918D828D981731F0828DE80FF11D858DE9
:1004F00090E008958FEF9FEF0895FC01918D228D7C
:10050000892F90E0805C9F4F821B91098F73992700
:10051000089584EC94E00E947D0221E0892B09F487
:1005200020E0822F08958BE194E00E947D0221E07B
:10053000892B09F420E0822F0895FC01A48DA80FD7
:10054000B92FB11DA35ABF4F2C91848D90E0019615
:100550008F739927848FA689B7892C93A089B18935
:100560008C91837080648C93938D848D981306C0D6
:100570000288F389E02D80818F7D80830895EF923A
:10058000FF920F931F93CF93DF93EC0181E0888F4D
:100590009B8D8C8D98131AC0E889F989808185FF1D
:1005A00015C09FB7F894EE89FF896083E889F989BF
:1005B00080818370806480839FBF81E090E0DF91C1
:1005C000CF911F910F91FF90EF900895F62E0B8D14
:1005D00010E00F5F1F4F0F731127E02E8C8D8E11CF
:1005E0000CC00FB607FCFACFE889F989808185FF36
:1005F000F5CFCE010E949D02F1CFEB8DEC0FFD2FC8
:10060000F11DE35AFF4FF0829FB7F8940B8FEA89F0
:10061000FB8980818062CFCFCF93DF93EC01888DFF
:100620008823B9F0AA89BB89E889F9898C9185FD6D
:1006300003C0808186FD0DC00FB607FCF7CF8C91FB
:1006400085FFF2CF808185FFEDCFCE010E949D0214
:10065000E9CFDF91CF91089580E090E0892B29F0D8
:100660000E94930281110E94000080E090E0892B9B
:1006700029F00E94890281110E94000080E090E030
:10068000892B49F080E090E0892B29F00E9400003E
:1006900081110E94000080E090E0892B49F080E009
:1006A00090E0892B29F00E94000081110C94000039
:1006B00008958150823108F05AC0E82FF0E0882771
:1006C000EB59FC4F8F4F0C941D1D85038903770355
:1006D0007D038103B7038C03920396039C03A0035D
:1006E000A403AA03AE03B703B203B803BC0380910B
:1006F00080008F77809380000895809180008F7DA7
:10070000F9CF80918000877FF5CF84B58F7784BD46
:10071000089584B58F7DFBCF8091B0008F77809353
:10072000B00008958091B0008F7DF9CF8091900046
:100730008F77809390000895809190008F7DF9CFFE
:1007400080919000877FF5CF8091A0008F77809374
:10075000A00008958091A0008F7DF9CF8091A00026
:10076000877FF5CF809120018F77809320010895B6
:10077000809120018F7DF9CF80912001877FF5CF77
:10078000CF93DF93282F30E0F901E450FE4F84919E
:10079000F901E95AFD4FD491F901E954FD4FC49193
:1007A000CC23A1F081110E945903EC2FF0E0EE0F51
:1007B000FF1FEE51FE4FA591B491EC91ED2381E026
:1007C00090E009F480E0DF91CF91089580E090E01F
:1007D000FACF862F0C94C0031F93CF93DF93282F5B
:1007E00030E0F901E450FE4F8491F901E95AFD4FE0
:1007F000D491F901E954FD4FC491CC23A9F0162FEF
:1008000081110E945903EC2FF0E0EE0FFF1FE35619
:10081000FD4FA591B4918FB7F894EC91111108C0D8
:10082000D095DE23DC938FBFDF91CF911F91089588
:10083000DE2BF8CFCF93DF9390916805992309F4CD
:100840004BC0C82F0E94E101D0E0FE01EF59FA4FE2
:1008500087839087809167058F3F19F061E00E9440
:10086000EC038091650590916605AE014E5F5F4F88
:10087000DC01ED91FC910280F381E02D68E675E0EA
:1008800019958091650590916605DC01ED91FC91CB
:100890000680F781E02D1995809167058F3F19F04B
:1008A00060E00E94EC038091650590916605DC0193
:1008B000ED91FC910084F185E02D1995892B61F073
:1008C0008091650590916605DC01ED91FC910284B3
:1008D000F385E02D1995E7CFDF91CF910895E1E6FB
:1008E000F5E0908590689087818783E00C941A04E6
:1008F000862F642F0C94EC0390910A0289130DC08B
:10090000EDEFF2E0E4919FEF90930A02E230E1F024
:1009100038F4EE2381F0E13089F060E00C94EC03D0
:10092000E43049F110F1E530C1F7909173009D7FFB
:1009300090937300F2CF10926E00EFCF90916F0002
:100940009D7F90936F00E9CF909170009D7F909371
:10095000700091E09093B0009091B100987F946006
:100960009093B1001092B300D8CF909171009D7F09
:1009700090937100D2CF909172009D7F90937200FE
:10098000CCCFCF93DF9390E0FC01E95AFD4F249147
:1009900089549D4FFC0184918823C9F090E0880F11
:1009A000991FFC01E853FE4FA591B491FC01E35659
:1009B000FD4FC591D49161110DC09FB7F8948C91F2
:1009C000209582238C938881282328839FBFDF91E1
:1009D000CF910895623051F49FB7F8943C91822FE3
:1009E000809583238C93E8812E2BEFCF8FB7F894DB
:1009F000EC912E2B2C938FBFEACF4F925F926F9288
:100A00007F928F929F92AF92BF92CF92DF92EF929E
:100A1000FF920F931F93CF938C014A015B0180914A
:100A20000A028D3099F08F3F09F46AC0CF911F916F
:100A30000F91FF90EF90DF90CF90BF90AF909F907D
:100A40008F907F906F905F904F900895EDEFF2E060
:100A5000C491C7FDEBCF61E08DE00E94C104280185
:100A6000712C612CCC23F1F0980150E040E0C230B1
:100A700009F01AC128013A0160E970ED83E090E0C5
:100A80000E94FE1C69017A0181E0C81AD108E108C0
:100A9000F10893E08FEFC816D104E104F10409F0E6
:100AA0000CF4ADC168E478EE81E090E0A30192011E
:100AB0000E94FE1C69017A0181E0C81AD108E10890
:100AC000F10894E0C1119BC185B5887F836085BD25
:100AD0002FEF3FEFA90181149104A104B10409F0A3
:100AE00001C1C7BC2093C1033093C2034093C30329
:100AF0005093C40380916E00826080936E0096CF05
:100B00008DE080930A02EDEFF2E0C4918C2FCF3F8D
:100B100009F48CCFC23009F468C060F4CC2379F1B9
:100B2000C13009F444C087FD81CF61E08DE00E94AF
:100B3000C1049ACFC43009F499C008F478C0C53014
:100B400091F710922001109221018091210188607B
:100B50008093210180912101816080932101E4EC47
:100B6000F2E0E491F0E0EE0FFF1FE356FD4F8591B8
:100B70009491E4E6F2E0E491E093A5036CCF14BC19
:100B800015BC84B5826084BD85B5816085BDE4EC0B
:100B9000F2E0E491F0E0EE0FFF1FE356FD4F859188
:100BA0009491E4E6F2E0E491E093AC0354CF109228
:100BB0008000109281008091810088608093810084
:100BC00080918100816080938100E4ECF2E0E49107
:100BD000F0E0EE0FFF1FE356FD4F85919491E4E6A0
:100BE000F2E0E491E093AB0336CF1092B0001092A4
:100BF000B1008091B00082608093B0008091B1001C
:100C000081608093B100E4ECF2E0E491F0E0EE0F5B
:100C1000FF1FE356FD4F859194919093AA03809313
:100C2000A903E4E6F2E0E491E093A80314CF109264
:100C300090001092910080919100886080939100C3
:100C400080919100816080939100E4ECF2E0E49166
:100C5000F0E0EE0FFF1FE356FD4F85919491E4E61F
:100C6000F2E0E491E093A703C3E0F5CE1092A00078
:100C70001092A1008091A10088608093A1008091D2
:100C8000A10081608093A100E4ECF2E0E491F0E047
:100C9000EE0FFF1FE356FD4F85919491E4E6F2E0DD
:100CA000E491E093A603D7CE60E072E18AE790E09A
:100CB0000E94FE1C69017A0181E0C81AD108E1088E
:100CC000F108C130E9F480918100887F81608093D0
:100CD00081002FEF3FEFA90181149104A104B10419
:100CE00009F4A5C0D801AA0FBB1FA50194010E9459
:100CF000A21C28EE33E040E050E00E94DC1C8EC0D5
:100D0000C33001F580919100887F816080939100CC
:100D10002FEF3FEFA90181149104A104B10411F751
:100D2000D0929900C09298002093B5033093B603F7
:100D30004093B7035093B803809171008260809311
:100D4000710074CEC43009F58091A100887F816064
:100D50008093A1002FEF3FEFA90181149104A1041A
:100D6000B10409F0BFCFD092A900C092A80020938F
:100D7000B1033093B2034093B3035093B403809113
:100D8000720082608093720051CEC530F1F580917F
:100D90002101887F8160809321012FEF3FEFA9011E
:100DA00081149104A104B10409F09CCFD0922901CF
:100DB000C09228012093AD033093AE034093AF035C
:100DC0005093B003809173008260809373002ECEA5
:100DD000C43049F20CF4A4CFC53041F327CEC09201
:100DE000B3002093B9033093BA034093BB035093ED
:100DF000BC038091700082608093700017CE809158
:100E0000B100887F892B8093B1002FEF3FEFA901BC
:100E100081149104A104B10409F064CFC230F9F245
:100E2000BCF6CC2309F45DCEC13009F0FFCDD092E1
:100E30008900C09288002093BD033093BE03409385
:100E4000BF035093C00380916F00826080936F0056
:100E5000EDCD862F642F0C94C1043FB7F894809198
:100E6000640390916503A0916603B091670326B572
:100E7000A89B05C02F3F19F00196A11DB11D3FBFD2
:100E8000BA2FA92F982F8827BC01CD01620F711DA1
:100E9000811D911D42E0660F771F881F991F4A959B
:100EA000D1F708958F929F92AF92BF92CF92DF9227
:100EB000EF92FF924B015C010E942D076B017C01B8
:100EC0000E942D076C197D098E099F09683E7340A9
:100ED00081059105A8F321E0821A9108A108B108C3
:100EE00088EEC80E83E0D81EE11CF11C8114910429
:100EF000A104B10429F7FF90EF90DF90CF90BF904D
:100F0000AF909F908F9008952FB7F89460916003F1
:100F10007091610380916203909163032FBF0895E4
:100F20000F931F93CF93DF93C82FD62F86E0C89FD0
:100F3000F0011124EF57F94F11A2878D90A1813054
:100F40009105F1F058F082309105F1F1039709F421
:100F500040C0DF91CF911F910F9108956623C9F38F
:100F600061E070E08C2F0E94FC010E948407609376
:100F7000D9067093DA068093DB069093DC06E9CFFE
:100F80000E9484070091D9061091DA062091DB06B1
:100F90003091DC06AB01BC01401B510B620B730BA3
:100FA0008091EB069091EC06B0E0A0E084179507E5
:100FB000A607B70748F462E070E08C2FDF91CF916D
:100FC0001F910F910C94FC0163E070E0D111C1CF2F
:100FD000F4CF70E060E0F1CF089520913C03260F3C
:100FE0003327331F21323105ECF42091F103FC014A
:100FF00090E080E0243069F082E00895A0913C0305
:101000002191AC01445E5C4FA40FB52FB11D2C9310
:101010000196861798F380913C03680F60933C0318
:1010200080E0089581E008951092F10381E08093BB
:10103000F0031092CB0361E084E10E94EC0361E0D5
:1010400085E10E94EC03E9EBF0E080818E7F8083F4
:1010500080818D7F808388E48093B80085E48093CD
:10106000BC0008951092CA031092C9031092F803AD
:1010700010921A040E9414088FED91E09093C80317
:101080008093C70380EE91E09093C6038093C503DD
:101090000895CF93DF9391E090931B038823B9F0D9
:1010A000C091B800D091BA008091BC008A7B809337
:1010B000BC0060E084E10E94EC0360E085E10E94F6
:1010C000EC030E941408D093BA00C093B800DF91DB
:1010D000CF9108958F929F92AF92BF92CF92DF925D
:1010E000EF92FF920F931F93CF93DF93D0911A0447
:1010F000D13208F0D7C0182FC09119040E942D07D3
:101100006B017C018091F10381116BC082E08093BF
:10111000F1031093F0038FEF8093EF031092EE032F
:10112000D093ED03A9EFB3E0EDECF3E080E0D8134A
:1011300091C01092CC038091CC03CC0FC82BC093EC
:10114000CC038091CB03813009F088C01092CB038F
:101150000E942D076B017C018091CC038093BB0022
:101160008091F3039091F403A091F503B091F603FD
:10117000892B8A2B8B2BA1F00E942D070091F30362
:101180001091F4032091F5033091F6036C197D0959
:101190008E099F09061717072807390708F442C068
:1011A0008091BC0083FDD8CF85EC8093BC000E9469
:1011B0002D076B017C018091F103823009F450C04E
:1011C0008091EF038F3F09F46FC08091EF0380326D
:1011D00009F46CC08091EF03803309F469C084E0A6
:1011E00026C08091F3039091F403A091F503B09190
:1011F000F603892B8A2B8B2B09F484CF0E942D07B1
:101200008090F3039090F403A090F503B090F60360
:101210006C197D098E099F0986169706A806B906DE
:1012200008F070CF8091F2030E94490885E0109287
:10123000F80310921A041092F703DF91CF911F91D7
:101240000F91FF90EF90DF90CF90BF90AF909F9065
:101250008F9008959D9191938F5F69CF85EEA5CF73
:101260008091F3039091F403A091F503B091F603FC
:10127000892B8A2B8B2B09F49ECF0E942D0700917E
:10128000F3031091F4032091F5033091F6036C19E8
:101290007D098E099F09061717072807390708F0E7
:1012A0008ACFC0CF81E0C3CF80E0C1CF82E0BFCF83
:1012B00083E0BDCF0895E091CA038091C903E81788
:1012C00030F4F0E0E558FC4F808190E008958FEF16
:1012D0009FEF08959091CA038091C9032FEF3FEFCC
:1012E000981748F4E92FF0E0E558FC4F208130E0F2
:1012F0009F5F9093CA03C90108958091C90390919B
:10130000CA03891B990B0895CF92DF92EF92FF9247
:101310000F931F93CF93DF937C01CB018A01209120
:10132000F703222389F0EB016B01C40ED51ECC1507
:10133000DD0569F06991D701ED91FC910190F08193
:10134000E02DC7011995F3CF642F0E94ED07C80166
:10135000DF91CF911F910F91FF90EF90DF90CF9091
:101360000895CF93DF931F92CDB7DEB769832091A5
:10137000F7032223F9F020911A04203258F021E0DB
:1013800030E0FC013383228390E080E00F90DF9116
:10139000CF9108958091F803E82FF0E0E750FC4FDB
:1013A000998190838F5F8093F80380931A0481E082
:1013B00090E0ECCF61E0CE0101960E94ED07F7CFFF
:1013C000CF93C62F672FFC01848191E09093F703A0
:1013D000809319041092F80310921A0488EB94E099
:1013E0000E94B1096C2F88EB94E00E94B10981E062
:1013F000CF910C946A08CF93DF9300D000D01F9256
:101400001F92CDB7DEB798E0E1E1F2E0DE01119680
:1014100001900D929A95E1F79091FE06961708F4C7
:101420006FEF70E0660F771F21E030E02C0F3D1F5B
:10143000620F731FFB016081860F8068682F70E068
:1014400086EF96E028960FB6F894DEBF0FBECDBFAC
:10145000DF91CF910C94E00970E070640E94E00984
:1014600081E090E0089590E080E008951F93CF938D
:10147000DF93EA01122FDC0111968D919C91DC0122
:10148000ED91FC910280F381E02D1995C817D907E1
:1014900029F4812F0E946A0891E0811190E0892F40
:1014A000DF91CF911F910895CF93DF93EC018B8152
:1014B0008823A1F0888191E09093F7038093190429
:1014C0001092F80310921A0481E00E946A0891E0D9
:1014D000811190E0892FDF91CF9108950E94320809
:1014E00081E08B83CE010E94540A982F8111E2CFB4
:1014F000F1CFFC01908190539A3008F090E0818107
:1015000080532AE0929F800D11240895CF92DF929C
:10151000EF92FF920F931F93CF93DF9380919F03DE
:10152000813029F178F0833009F480C0843009F4E7
:10153000B9C0DF91CF911F910F91FF90EF90DF9095
:10154000CF900895C9E1D2E007E312E060E088811E
:101550000E94EC0361E08A810E94EC0360E08C81D0
:101560000E94EC0326960C171D0781F7E2CF0E941C
:1015700084076B017C01C0921703D0921803E0929C
:101580001903F0921A038091130390911403A09110
:101590001503B0911603A7019601281B390B4A0BBE
:1015A0005B0BDA01C901853F9140A105B10508F245
:1015B000C9E1D2E060E088810E94EC0360E08A81AA
:1015C0000E94EC0360E08C810E94EC03269642E0CE
:1015D000C733D40779F7009111031091120386E005
:1015E000809FE001819FD00D1124C75EDD4F61E037
:1015F00088810E94EC0361E08A810E94EC0360E034
:101600008C810E94EC03C801019665E070E00E94A5
:10161000C81C9093120380931103C0921303D092BD
:101620001403E0921503F092160383CF0E948407FF
:101630006B017C01C0921703D0921803E09219034A
:10164000F0921A038091130390911403A091150353
:10165000B0911603A7019601281B390B4A0B5B0BAF
:10166000DA01C9018F3E9240A105B10508F461CFAE
:101670001091100381E0182710931003C9E1D2E004
:10168000612F88810E94EC0360E08A810E94EC0354
:1016900060E08C810E94EC03269642E0C733D407B9
:1016A00079F7BBCFC9E1D2E061E088810E94EC0309
:1016B00060E08A810E94EC0360E08C810E94EC0370
:1016C000269652E0C733D50779F733CF2F923F9252
:1016D0004F925F926F927F928F929F92AF92BF9242
:1016E000CF92DF92EF92FF920F931F93CF93DF93EE
:1016F00000D000D01F92CDB7DEB77C011982809058
:101700009B0390909C03D40114968D919C91159706
:10171000892B09F418C18C9191E09093F703809381
:1017200019041092F80310921A0420E041E050E0EE
:10173000BE016F5F7F4FC4010E94360A882309F4FF
:1017400002C1B12CA12CA7E02A2E312CF4018481F6
:1017500095816101CA18DB088C159D0508F46C01A0
:10176000D4010C910E942D072B013C018091F103C3
:10177000811173C01C2D113208F010E2B1E0B0935A
:10178000F10321E0C1018C199D09A816B90608F4DE
:1017900020E02093F003EFEFE093EF031092EE03CD
:1017A0008FEF810F8093ED03F1E0F093CC038091F4
:1017B000CC03000F082B0093CC038091CB03813026
:1017C00009F094C01092CB030E942D072B013C011D
:1017D0008091CC038093BB008091F3039091F4033C
:1017E000A091F503B091F603892B8A2B8B2BA1F0E6
:1017F0000E942D072091F3033091F4034091F503EB
:101800005091F60364197509860997092617370759
:101810004807590708F442C08091BC0083FDD8CF27
:1018200085EC8093BC000E942D072B013C01809128
:10183000F103813009F45EC08091EE03811710F44A
:101840001091EE03ADECB3E0EBE7F3E080E081173D
:1018500051F19D9191938F5FFACF8091F303909115
:10186000F403A091F503B091F603892B8A2B8B2BFF
:1018700009F47CCF0E942D072091F3033091F403EB
:101880004091F5035091F60364197509860997098B
:10189000261737074807590708F068CF8091F203E9
:1018A0000E94490810E01092CA031093C9031C1546
:1018B0001D0409F048C001E010E00C0F1D1F0A0DC7
:1018C0001B1D3801C801861997098C159D05A0F5C7
:1018D000F40181819281DC01ED91FC910284F38518
:1018E000E02D1995F80181938F01ECCFA5EEA0931F
:1018F000BC0099CF8091F3039091F403A091F5037C
:10190000B091F603892B8A2B8B2B09F490CF0E9480
:101910002D072091F3033091F4034091F50350918A
:10192000F6036419750986099709261737074807CA
:10193000590708F07CCFB2CFAC0CBD1CF7E0AF1656
:10194000B10408F403CFE981EF77FA811B814D815F
:101950005E818F81282F30E094E0359527959A9508
:10196000E1F7922F990F990F291B220F280FD7010A
:101970002C93852F90E024E0959587952A95E1F7A3
:10198000982F990F990F891B880F850F11968C93AB
:101990001197642F70E034E0759567953A95E1F7FB
:1019A000862F880F880F681B660F640F12966C9342
:1019B0001297412F50E064E0559547956A95E1F7FD
:1019C000842F880F880F481B440F410F13964C93A8
:1019D00013972F2F30E074E0359527957A95E1F72E
:1019E000822F880F880F281B220F2F0F14962C93FD
:1019F00014978E2F90E0F4E095958795FA95E1F78E
:101A0000982F990F990F891B880F8E0F15968C931D
:101A1000C70127960FB6F894DEBF0FBECDBFDF918A
:101A2000CF911F910F91FF90EF90DF90CF90BF90DB
:101A3000AF909F908F907F906F905F904F903F906E
:101A40002F900895FC0180819181009711F00C94F2
:101A5000D51D0895FB0101900020E9F73197AF01F2
:101A6000461B570BDC01ED91FC910280F381E02DC8
:101A700019948F929F92AF92BF92EF92FF920F9321
:101A80001F93CF93DF93CDB7DEB7A1970FB6F8942E
:101A9000DEBF0FBECDBF7C01FA01CB0119A22230FF
:101AA00008F42AE08E010F5D1F4F822E912CB12C7D
:101AB000A12CBF01A50194010E94DC1CF901CA01FF
:101AC0006A300CF5605DD8016E938D01232B242BB9
:101AD000252B79F790E080E0109721F0BD01C70138
:101AE0000E942A0DA1960FB6F894DEBF0FBECDBF9F
:101AF000DF91CF911F910F91FF90EF90BF90AF902A
:101B00009F908F900895695CDECFCF92DF92EF9225
:101B1000FF92CF93DF936C01990FEE08FF08F7FE59
:101B20001BC06DE28BE194E00E94BF02EC014427F0
:101B30005527BA014C195D096E097F092AE08BE12E
:101B400094E00E94390D8C0F9D1FDF91CF91FF9083
:101B5000EF90DF90CF9008952AE0B701A6018BE1C6
:101B600094E0DF91CF91FF90EF90DF90CF900C94B5
:101B7000390D61E08AE00E94FB0967E972E086EFB7
:101B800096E00C942A0DCF93DF93EC0160E080E0A7
:101B90000E94FB0964E872E086EF96E00E942A0D3D
:101BA00060E080E00E94FB094C815D816881798161
:101BB00086EF96E0DF91CF910C941F02EF92FF9297
:101BC0000F931F93CF93DF93EC017B01198218824F
:101BD0001B821A821D821C82FB0101900020E9F702
:101BE00031978F01061B170BB8016F5F7F4F90E095
:101BF00080E00E945E1E0097B9F0998388831B8362
:101C00000A832C813D81232B11F4FC0110821D835A
:101C10000C83B70188819981DF91CF911F910F913A
:101C2000FF90EF900C94511F88819981009711F0DB
:101C30000E94D51D198218821D821C821B821A8265
:101C4000DF91CF911F910F91FF90EF90089585ED57
:101C50008093BC008091F3039091F403A091F5036D
:101C6000B091F6030796A11DB11D23E0B695A79587
:101C7000979587952A95D1F72091BC0024FD03C044
:101C80001092F10308954091F3035091F403609191
:101C9000F5037091F603452B462B472B69F300970C
:101CA000A105B10541F025E32A95F1F70000019760
:101CB000A109B109E1CF8091F2030C944908E0EA4F
:101CC000F3E085E0DF011D928A95E9F71092790330
:101CD000109278030895CF93DF9300D000D0CDB752
:101CE000DEB7BC0180EA93E00E94481F892B41F5D2
:101CF0006DE972E0CE0101960E94DE0DCE010196E3
:101D00000E94C30DCE0101960E94220D48EE53E0C1
:101D100060E070E088EE93E00E94FD0482E0809332
:101D20009F030E945F0E10929E0310929D032696C1
:101D30000FB6F894DEBF0FBECDBFDF91CF910895EF
:101D400083E080939F030E945F0E6CEA72E0CE01F5
:101D500001960E94DE0DCE0101960E94C30DCE01B8
:101D600001960E94220D40ED57E060E070E088EEA1
:101D700093E00E94FD0480919D0390919E03019643
:101D800090939E0380939D030E94850D80919D03F7
:101D900090919E0303975CF26AEB72E0CE0101968C
:101DA0000E94DE0DCE0101960E94C30DCE01019668
:101DB0000E94220D84E080939F03B9CFCF93DF93DD
:101DC00000D000D0CDB7DEB710929F030E945F0E07
:101DD0006FED72E0CE0101960E94DE0DCE010196FC
:101DE0000E94C30DCE0101960E94220D0E94B90DE2
:101DF00010927A0326960FB6F894DEBF0FBECDBFC1
:101E0000DF91CF9108951F920F920FB60F92112478
:101E10000BB60F922F933F934F935F936F937F93E4
:101E20008F939F93AF93BF93EF93FF938091B903E9
:101E30009091BA03A091BB03B091BC03892B8A2B6C
:101E40008B2BE1F19091A803E091A903F091AA03F3
:101E50008081892780838091B9039091BA03A091F2
:101E6000BB03B091BC03181619061A061B069CF496
:101E70008091B9039091BA03A091BB03B091BC03C8
:101E80000197A109B1098093B9039093BA03A09374
:101E9000BB03B093BC03FF91EF91BF91AF919F91B2
:101EA0008F917F916F915F914F913F912F910F9003
:101EB0000BBE0F900FBE0F901F90189580910A02D5
:101EC0000E947C04E8CF1F920F920FB60F9211244C
:101ED0000BB60F922F933F934F935F936F937F9324
:101EE0008F939F93AF93BF93EF93FF9384EC94E012
:101EF0000E949D02FF91EF91BF91AF919F918F91B1
:101F00007F916F915F914F913F912F910F900BBEF9
:101F10000F900FBE0F901F9018951F920F920FB643
:101F20000F9211240BB60F922F938F939F93EF93E1
:101F3000FF93E091D404F091D5048081E091DA041C
:101F4000F091DB0482FD1DC090818091DD048F5FE4
:101F50008F732091DE04821741F0E091DD04F0E000
:101F6000EC53FB4F958F8093DD04FF91EF919F9190
:101F70008F912F910F900BBE0F900FBE0F901F905F
:101F800018958081F2CF1F920F920FB60F921124F5
:101F90000BB60F922F933F934F935F936F937F9363
:101FA0008F939F93AF93BF93EF93FF938BE194E055
:101FB0000E949D02FF91EF91BF91AF919F918F91F0
:101FC0007F916F915F914F913F912F910F900BBE39
:101FD0000F900FBE0F901F9018951F920F920FB683
:101FE0000F9211240BB60F922F938F939F93EF9321
:101FF000FF93E0912B04F0912C048081E091310457
:10200000F091320482FD1DC09081809134048F5F75
:102010008F7320913504821741F0E0913404F0E091
:10202000E55EFB4F958F80933404FF91EF919F9174
:102030008F912F910F900BBE0F900FBE0F901F909E
:1020400018958081F2CF1F920F920FB60F92112434
:102050002F933F938F939F93AF93BF938091600390
:1020600090916103A0916203B091630330915F038B
:1020700023E0230F2D3758F50196A11DB11D2093A4
:102080005F038093600390936103A0936203B09316
:1020900063038091640390916503A0916603B091FE
:1020A00067030196A11DB11D80936403909365039E
:1020B000A0936603B0936703BF91AF919F918F91F7
:1020C0003F912F910F900FBE0F901F90189526E80B
:1020D000230F0296A11DB11DD2CF1F920F920FB6F2
:1020E0000F9211240BB60F922F933F938F939F93D0
:1020F000AF93BF93CF93DF93EF93FF93E0916A0386
:10210000F0916B03309749F0A685B7859585868D4C
:1021100081FF14C08C918923A1F4FF91EF91DF918D
:10212000CF91BF91AF919F918F913F912F910F9040
:102130000BBE0F900FBE0F901F9018958C918923A6
:1021400061F7A389B4899C918589809589238C93B3
:10215000868997890197F1F7208D318DC685D785BE
:1021600088E0D9011197F1F798818150D1F78091DA
:10217000690390E001968F739927209168032817CF
:1021800079F09091690380936903828D938D019713
:10219000F1F7A389B4898C919589892B8C93BDCF54
:1021A000868D8160868FF1CF1F920F920FB60F92AE
:1021B00011240BB60F922F933F934F935F936F931E
:1021C0007F938F939F93AF93BF93EF93FF938091F0
:1021D000B900887F803609F44DC008F040C08832CD
:1021E00009F4A9C028F5803109F49DC0C8F48823FA
:1021F00009F4FBC0883009F496C0FF91EF91BF91BC
:10220000AF919F918F917F916F915F914F913F918E
:102210002F910F900BBE0F900FBE0F901F9018952F
:10222000883109F488C0803241F78093EF0314C0ED
:10223000803409F49DC040F48033B9F38833E9F663
:102240008093EF0385ECB0C0803509F485C08835F4
:1022500009F496C0883489F60E94270ECECF8839BB
:1022600009F48CC038F5883729F050F4883611F01D
:10227000803719F683E08093F10310925E0357C014
:10228000883809F47BC0803919F0803809F0B5CF5F
:1022900080915E03803208F071C0E0915E0381E0BE
:1022A0008E0F80935E038091BB00F0E0E25CFC4FF8
:1022B00080833DC0803B39F0E0F4803A09F479C076
:1022C000883A09F09ACF84E08093F10310923D039D
:1022D00010923C03E091C703F091C80319958091D7
:1022E0003C0381110FC081E080933C0310921C03DA
:1022F00009C0803C09F4A6CF883C09F4A3CF883BF1
:1023000009F07BCFE0913D0381E08E0F80933D0388
:10231000F0E0E45EFC4F80818093BB0090913D0330
:1023200080913C0329C08091CC038093BB0085EC55
:102330008093BC0062CF9091EE038091ED039817DB
:1023400058F5E091EE0381E08E0F8093EE03F0E00C
:10235000E353FC4F8081E9CFE091EE0381E08E0FE3
:102360008093EE038091BB00F0E0E353FC4F808349
:102370009091EE038091ED039817C8F285E8D8CFCD
:10238000E091EE0381E08E0F8093EE038091BB001D
:10239000F0E0E353FC4F80838091F00381115CCF28
:1023A00081E08093CB0384EA8093BC001092F10318
:1023B00024CF85EC8093BC001092F10380915E03E2
:1023C000803230F4E0915E03F0E0E25CFC4F10827A
:1023D00060915E0370E0E091C503F091C6038EE367
:1023E00093E0199510925E0308CF1092EF0334CF5B
:1023F0001092C7041092C60488EE93E0A0E0B0E00B
:102400008093C8049093C904A093CA04B093CB04EA
:102410002BE332E03093C5042093C4044DEC50E02C
:102420005093D1044093D0044CEC50E05093D3042B
:102430004093D20448EC50E05093D5044093D40428
:1024400049EC50E05093D7044093D6044AEC50E056
:102450005093D9044093D8044EEC50E05093DB04E1
:102460004093DA041092DD041092DE041092DF042F
:102470001092E00410921E0410921D0480931F0419
:1024800090932004A0932104B093220430931C0461
:1024900020931B0425EC30E030932804209327047C
:1024A00024EC30E030932A042093290420EC30E01F
:1024B00030932C0420932B0421EC30E030932E0435
:1024C00020932D0422EC30E03093300420932F042D
:1024D00026EC30E03093320420933104109234041F
:1024E0001092350410923604109237041092BB04F7
:1024F0001092BA048093BC049093BD04A093BE04D0
:10250000B093BF048DE492E09093B9048093B80433
:102510001092F9061092F80689E692E09093F70679
:102520008093F6061092FF068EE38093FA0684E10C
:102530008093000782E080930107109202071092B7
:10254000F5061092F4061092F3061092F006EEEFE4
:10255000F2E081E08C3051F09491823009F49F5F79
:1025600021E0280F3196992309F483C08093F10666
:1025700081E08093F20610928306109287061092F3
:102580008606109288068FE592E0909382068093EB
:102590008106EDE9F6E089ED96E01082148213825F
:1025A000158236968E179F07C1F784E792E09093C5
:1025B000E4068093E30681E792E09093E606809339
:1025C000E50684E08093E70683E08093E80688E7E9
:1025D00092E09093E2068093E1068AE090E0909387
:1025E000EA068093E90684EF91E09093EC068093ED
:1025F000EB061092EF061092EE061092DD06109296
:10260000DE061092DF061092E0061092ED061092A0
:102610007106109270061092730610927206109254
:10262000750610927406109277061092760684EC66
:1026300094E0909362058093610510926405109276
:102640006305909366058093650510926906109264
:10265000680610926B0610926A0610926D06109230
:102660006C0610926F0610926E068FEF80936705CE
:102670000895822F6FCFCF93DF93CDB7DEB76597E5
:102680000FB6F894DEBF0FBECDBF789484B58260DC
:1026900084BD84B5816084BD85B5826085BD85B506
:1026A000816085BD80916E00816080936E00109284
:1026B00081008091810082608093810080918100FF
:1026C0008160809381008091800081608093800090
:1026D0008091B10084608093B1008091B0008160EE
:1026E0008093B000809191008260809391008091EE
:1026F000910081608093910080919000816080932F
:1027000090008091A10082608093A1008091A1003F
:1027100081608093A1008091A00081608093A000DF
:10272000809121018260809321018091210181604B
:10273000809321018091200181608093200180910C
:102740007A00846080937A0080917A00826080931E
:102750007A0080917A00816080937A0080917A007B
:10276000806880937A001092C100A9E1EA2EA2E06D
:10277000FA2E61E0D7018C910E94C10461E0F7015B
:1027800082810E94C10461E0D70114968C910E945D
:10279000C104B6E0EB0EF11CE7E3EE16E2E0FE0644
:1027A00041F70E94860A61E08DE00E94C104F3E0D7
:1027B000EF2EF12C40E050E0BA0184EF91E00E944E
:1027C000FD0468EE73E080E090E00E9452078DE027
:1027D0000E947C0468EE73E080E090E00E94520763
:1027E000F1E0EF1AF10831F70E94320880E180939E
:1027F000FB0680910107823018F098E19093FB0668
:102800008093FE068BE39DE00197F1F76091FB0654
:10281000606270E086EF96E00E94E0098BE496E447
:102820000197F1F76091FB06606270E086EF96E039
:102830000E94E00983E592E00197F1F76091FB06C1
:10284000606270E086EF96E00E94E0096091FB060E
:10285000606270E086EF96E00E94E00984E0809379
:10286000FC066CE070E086EF96E00E94E00961E013
:1028700070E086EF96E00E94E0098BE39FE101970C
:10288000F1F78091FF06882321F060E080E00E944C
:10289000FB0982E08093FD0666E070E086EF96E03B
:1028A0000E94E00962E070E086EF96E00E94E00995
:1028B0008BE39FE10197F1F788E08093020770E0D6
:1028C00060E086EF96E00E94E00980919B03909182
:1028D0009C03009711F00E94D51D86E090E00E94B5
:1028E000391D7C0188E6D7018C9388EB94E0129621
:1028F0009C938E93119713961C92139780E290E00D
:1029000015969C938E931497F0929C03E0929B03F0
:102910000E94320881E0F7018383C7010E94540AB4
:102920004BE050E06BE472E09E012F5F3F4F1901D6
:10293000C9010E94911CCE010A960E94790A082FB3
:10294000E981E154E33128F50E2E000CFF0B8827B6
:10295000E355FB4E8F4F0C941D1D9516C914C914D9
:10296000A916C914AB16C914C914C914C014C914C2
:10297000C9149C16A716A516C914C914C914A31600
:102980008A8111E0813629F08B8116E08E3609F0BC
:1029900017E0CE0105960E94790AF82E48E050E033
:1029A00062E472E0C1010E94911CC1010E94790A97
:1029B000E82ECE0104960E94790AD82ECE01079601
:1029C0000E94790A382F86E0D1011D928A95E9F795
:1029D0002AE0832F622F0E94BC1C982F880F890F3A
:1029E000880F830F8A838D2D0E94BC1C982F880F1F
:1029F000890F880F8D0D8B838E2D0E94BC1C982F04
:102A0000880F890F880F8E0D8C838F2D0E94BC1C20
:102A1000982F880F890F880F8F0D8E83812F0E942A
:102A2000BC1C982F990F890F880F180F1F83802FB8
:102A30000E94BC1C982F880F890F880F800F8887F1
:102A400080919B0390919C03FC0124813581283067
:102A5000310580F0208131E03093F7032093190491
:102A60001092F80310921A0421E048E050E0B101FE
:102A70000E94360A84E793E090936F0680936E0677
:102A800082E090E090937706809376068CE693E060
:102A900090936D0680936C0684E090E090937506A9
:102AA0008093740680919F0390E0909375038093C8
:102AB000740385E092E00E94731C90936D038093F1
:102AC0006C0380E092E00E94731C90936F038093EC
:102AD0006E031092710310927003109273031092A0
:102AE000720381E080937806809161059091620580
:102AF000009709F432C14CE25AE060E070E0409384
:102B0000790650937A0660937B0670937C064FE4B7
:102B100052E160E070E040937D0650937E06609342
:102B20007F067093800666E00E94B9018091670578
:102B30008F3F41F061E00E94C10460E08091670531
:102B40000E94EC030E942D076B017C0180916505BA
:102B500090916605DC01ED91FC910084F185E02DFA
:102B60001995892B79F00E942D076B017C018091CA
:102B7000650590916605DC01ED91FC910284F38579
:102B8000E02D19950E942D076C197D098E099F096A
:102B900000917D0610917E0620917F06309180067F
:102BA000601771078207930788F266E08BE194E073
:102BB0000E94B901412C512C32014394C1010E9461
:102BC000660B86E0F101A0EFB6E001900D928A95C8
:102BD000E1F761E080E00E94FB098091F3068A3012
:102BE00030F46AEC72E086EF96E00E942A0D409184
:102BF000F30650E070E060E02AE086EF96E00E9485
:102C0000390D6AE370E486EF96E00E94E009809156
:102C1000F4068A3030F46AEC72E086EF96E00E94A7
:102C20002A0D4091F40650E070E060E02AE086EF63
:102C300096E00E94390D6AE370E486EF96E00E9408
:102C4000E0098091F5068A3030F46AEC72E086EF94
:102C500096E00E942A0D4091F50650E070E060E099
:102C60002AE086EF96E00E94390D0E94860A809144
:102C70007B00877F80937B00B0E4B0937C008091E1
:102C80007A00806480937A0080917A0086FDFCCF80
:102C900090917800809179008927982789279093CF
:102CA000770380937603813092400CF42EC110920A
:102CB000020770E060E086EF96E00E94E0098091F4
:102CC0009F03843009F4F4C381E08093ED060E94F1
:102CD00084070091DD061091DE062091DF06309119
:102CE000E006AB01BC01401B510B620B730B8091E2
:102CF000E9069091EA06B0E0A0E084179507A607E0
:102D0000B70708F0BEC210E08091E706181708F078
:102D100000C1E091E306F091E406E10FF11D62E0ED
:102D200080810E94C1041F5FEFCF8B8114E0823746
:102D300009F42FCE18E02DCE8B8113E0823709F4F1
:102D400028CE15E026CE19E024CE1AE022CE1BE0D4
:102D500020CE1CE01ECE12E01CCEE0916305F09167
:102D60006405309709F4E2CE8CE29AE0A0E0B0E08E
:102D70008093790690937A06A0937B06B0937C06A5
:102D80008FE492E1A0E0B0E080937D0690937E0610
:102D9000A0937F06B0938006138E128E118E108E34
:102DA000178A168A8DE991E0958F848F848596EF36
:102DB000980F943048F02EEC280F243028F022ECA5
:102DC000280F283008F055C02DEB30E0378B268BCC
:102DD0002BE931E0318F208F2CE231E0338F228FCD
:102DE000943050F02EEC280F243030F022EC280FD5
:102DF000B0E0A0E0283010F4A8E6B0E02C919430C8
:102E000028F032EC380F383008F462C031E0232B60
:102E1000943048F09EEC980F943028F08E53B0E038
:102E2000A0E0883010F4A8E6B0E02C93248536EFBB
:102E3000320F343008F44EC08EEC820F843008F428
:102E400049C082EC820F883008F047C08DE690E0E0
:102E5000948B838B343008F043C02650330B81E0D1
:102E600001C0880F2A95EAF7858B848D958D01978F
:102E7000F1F7828D938D892B09F458CE40916A0326
:102E800050916B03E417F50709F450CE4115510535
:102E900069F0DA0153962D913C91D9019C91DA01A8
:102EA00055968C9180958923D9018C93868D8E7F40
:102EB000868F1092690310926803F0936B03E0937E
:102EC0006A03A389B4898C919589892B8C932ECE22
:102ED00034E09DCF8BE690E0BBCF90E080E0B8CFB0
:102EE00088E0223309F4C0CF84E0233309F4BCCF57
:102EF00082E0243309F4B8CF82EC820F883018F4D2
:102F00002E53330BACCF81E0AFCFF8E0F093020744
:102F1000D0CE912C8091E806981608F061C0E92C7B
:102F2000F12CE091E506F091E606EE0DFF1D61E063
:102F300080810E94C104E091E506F091E606EE0D65
:102F4000FF1D60E080810E94EC03D301C201092CC7
:102F500004C0880F991FAA1FBB1F0A94D2F75C01F7
:102F60006C01C094D094812C8091E706881608F5F6
:102F7000082D10E0E091E306F091E406E00FF11F68
:102F800080810E94C0030C5F1F4F000F111FF801CA
:102F9000EF57F94F892B41F4808191818A299B2930
:102FA000918380838394E0CF808191818C219D21C6
:102FB000F7CFE091E506F091E606EE0DFF1D61E02A
:102FC00080810E94EC038091E5069091E606E80E70
:102FD000F91E60E0D7018C910E94C10493949ACFAE
:102FE00061E8E62E66E0F62E8701F801878D90A154
:102FF000892B39F4148ECC24CA94DC2CD68EC58E41
:1030000011A20A5F1F4F26E00D3B120771F7D12C6A
:103010008091E706D81608F053C0C12CAD2CB12C16
:10302000AA0CBB1CA5014757594F5A012091E8062D
:10303000C21608F043C0D5016D917C910C2C02C0E2
:10304000769567950A94E2F7D29E900111242C0D93
:10305000311DE1E8F6E080E0458D568D24173507F7
:1030600009F43FC48F5F36968A30B1F760FF24C001
:10307000E1E8F6E090E080E0448D411118C0E09175
:10308000E106F091E206E20FF31F4081B6E0B89F3F
:10309000F001B99FF00D1124EF57F94F448F368F8F
:1030A000258F10A2178E61E00E94900705C001963F
:1030B00036968A30910501F7C394B8CFD394A8CF40
:1030C000D12CF70181A18111D82EF6E0EF0EF11C71
:1030D0000E151F05B1F70E9484076093DD067093FB
:1030E000DE068093DF069093E00600919F03DD20CB
:1030F00009F4C7C08091A206882309F4C2C0809158
:10310000A0069091A106019709F0BBC010919D0601
:103110001111BAC080919F03843089F00E94840706
:10312000CA88DB88EC88FD886C197D098E099F09A7
:10313000613177428105910510F00E94DE0E809189
:10314000650590916605DC01ED91FC910084F185A7
:10315000E02D1995892B09F4ABC1C12CD12C760136
:1031600010E000E08091650590916605DC01ED912D
:10317000FC910084F185E02D1995892BA9F00E941E
:103180002D076B017C018091650590916605DC013E
:10319000ED91FC910284F385E02D1995F801EF592A
:1031A000FA4F87830F5F1F4F0E942D076C197D090F
:1031B0008E099F098090790690907A06A0907B06F0
:1031C000B0907C0686169706A806B90620F00F3F39
:1031D000110541F238F20E942D076C197D098E0904
:1031E0009F0980907D0690907E06A0907F06B0900B
:1031F0008006681579058A059B0568F38091650549
:1032000090916605DC01ED91FC910084F185E02D43
:103210001995892B09F04CC1809168059091780629
:10322000891711F0811144C18EEF800F0E94E101D6
:10323000F801EF59FA4F26813581232732272327BA
:103240008217930709F034C1E0916905E150E0313C
:1032500008F0E6C0F0E08827EF5CF64E8F4F0C9444
:103260001D1DF5195F1ABF1A111B631B961B101A3F
:10327000101A101A101A101A101A101A101ABE1B4F
:103280001F1C1092ED0646CF0E9484076A8B7B8B31
:103290008C8B9D8B011103C081E080939F031332BF
:1032A00089F11A3209F453C080917803909179031F
:1032B000843091050CF02ECF9C012F5F3F4F30934F
:1032C00079032093780380569C4FDC011C93205691
:1032D0003C4FF901108261E08AE00E94FB0910E096
:1032E00000E08091780390917903081719070CF09A
:1032F00073C06EE073E086EF96E00E942A0D0F5FC8
:103300001F4FEFCF6CEC72E08BE194E00E942A0D2E
:103310006DED72E08BE194E00E942A0D60EE72E0A8
:10332000CE0101960E94DE0DCE0101960E94C30DD2
:10333000CE0101960E94220D0E94B90D68EB7BE040
:1033400080E090E00E9452070E94DE0EE3CE1092D1
:10335000A403CE0101960E94660B8C81843158F142
:1033600080917A03811135C085E092E00E946B0E56
:1033700081E080937A0368EE72E08BE194E00E9432
:103380002A0D6DED72E08BE194E00E942A0D809190
:103390007A0390E00E94850D69EF72E0CE010196FC
:1033A0000E94DE0DCE0101960E94C30DCE01019652
:1033B0000E94220D0BC0CE010C960E94660B8F85D9
:1033C000883070F285E092E00E946B0E0E94B90D89
:1033D000A1CE80E092E0F8CF48EC50E060E070E0F1
:1033E00088EE93E00E94FD0495CE60916A0570918D
:1033F0006B0576276727762780916C0590916D0580
:10340000982789279827A0916806B0916906109798
:1034100039F040917006509171064115510511F433
:1034200081E006C0FC013197E03DF74020F083E0E9
:103430000E946F043DC04817590728F0481B590BDC
:103440004617570710F482E0F3CFAC01495F5F4F96
:1034500033E0569547953A95E1F740936A05A60FF4
:10346000B71F50E040E06D919A0127703327730138
:10347000620104C0CC0CDD1CEE1CFF1C2A95D2F7A7
:103480008601FA0123E0F695E7952A95E1F7EC59D4
:10349000FA4F7781662379F0072B07834F5F5F4FE1
:1034A0004817590701F780916A058D5F0E941A0439
:1034B0000E942C0383CB009570237783EFCF20915C
:1034C0006A0530916B0532272327322780916C05DE
:1034D00090916D05982789279827A0916A06B09149
:1034E0006B06109709F49CCF4091720650917306B9
:1034F0004115510509F494CFFC013197E03DF740A7
:1035000008F095CF4817590708F49DCF481B590B71
:103510004217530708F497CFAC01495F5F4F03E0B0
:10352000569547950A95E1F740936A05A20FB31F98
:1035300050E040E06D919A012770332773016201DA
:1035400004C0CC0CDD1CEE1CFF1C2A95D2F78601B2
:10355000FA0113E0F695E7951A95E1F7EC59FA4F61
:103560007781662341F0072B07834F5F5F4F8417F6
:10357000950701F798CF009570237783F6CFE091F8
:103580006A05F0916B05FE27EF27FE2740916C0638
:1035900050916D064115510509F442CF20917406F2
:1035A000309175062115310509F43ACF80916C05EB
:1035B00090916D05982789279827BC016150710962
:1035C0006D37710508F033CF2817390708F43BCF62
:1035D000281B390B2E173F0708F435CF282F220F51
:1035E00020936A05EE0FFF1FBF01640F751FA1E650
:1035F000B5E030E020E0FB0141816E5F7F4F1A961D
:103600004C931A97AB0142505109FA0140811B9625
:103610004C931B972F5F3F4F12968217930759F7D2
:1036200042CFE0916A05F0916B05FE27EF27FE2758
:1036300040916E0650916F064115510509F4F0CE88
:1036400020917606309177062115310509F4E8CEF0
:1036500080916C0590916D05982789279827BC016A
:10366000615071096D37710508F0E1CE28173907EF
:1036700008F4E9CE281B390B2E173F0708F4E3CED8
:10368000282F220F20936A05EE0FFF1FBF01640F42
:10369000751FA1E6B5E030E020E0FB0141816E5FDF
:1036A0007F4F1A964C931A97AB0142505109FA0179
:1036B00040811B964C931B972F5F3F4F1296281704
:1036C000390759F7F0CE40916A0550916B055427A0
:1036D0004527542780916C0590916D05982789277F
:1036E000982720916806309169062115310509F463
:1036F00097CE60917006709171066115710509F49D
:103700008FCE009729F08115FFEF9F0709F08FCE2C
:103710004617570708F097CE240F351F41E0892B35
:1037200009F440E0D9014C9386E0C0CE80916A054F
:1037300090916B0598278927982720916C053091E7
:103740006D05322723273227E0916C06F0916D0634
:10375000309709F465CE4091740650917506411575
:10376000510509F45DCE8417950708F06CCE880FDB
:10377000991FE80FF91F31832083D6CF60916A0526
:1037800070916B0576276727762780916C0590915D
:103790006D0598278927982720916806309169063A
:1037A000232B09F43DCE209170063091710621152E
:1037B000310509F435CEAC0141505109403BB7E029
:1037C0005B0708F034CEE0916E05485F5F4F03E081
:1037D000569547950A95E1F7E417150609F027CEA7
:1037E0002817390708F42FCE281B390B261737075F
:1037F00008F429CE50E040E0E0916806F0916906B7
:10380000E60FF71FE40FF51FDA0113E0B695A79551
:103810001A95E1F7AF59BA4F1E962C9130E0DA01B4
:10382000A770BB2702C035952795AA95E2F72170AE
:1038300020834F5F5F4F84179507F1F675CF809116
:103840006A0590916B0598278927982720916C0528
:1038500030916D0532272327322740916C06509115
:103860006D06452B09F4DCCD409174065091750628
:103870004115510509F4D4CDB901615071096B3777
:10388000710508F0D4CDE0916E05B901660F771F80
:10389000E617170609F0CBCD4217530708F4D3CD2E
:1038A000421B530B4817590708F4CDCD880F991FB9
:1038B000E1E6F5E050E040E081569540A0916C06CD
:1038C000B0916D06AE0FBF1FA80FB91F7685678533
:1038D0006D937C934F5F5F4F32962417350771F7D6
:1038E00023CF6170E1CBFC0188279927E8942191CF
:1038F0002032E9F3293010F02E30C8F32B3241F09A
:103900002D3239F4689404C00E949A1C820F911DD4
:10391000219120532A30C0F31EF4909581959F4F3A
:103920000895FB01DC0102C005900D92415050400A
:10393000D8F708957AE0979F902D879F802D910D5D
:10394000112408950E94AD1CA59F900DB49F900D69
:10395000A49F800D911D11240895A29FB001B39FD3
:10396000C001A39F700D811D1124911DB29F700D88
:10397000811D1124911D0895991B79E004C0991FA0
:10398000961708F0961B881F7A95C9F780950895B9
:1039900097FB072E16F4009407D077FD09D00E94FC
:1039A000251D07FC05D03EF4909581959F4F089505
:1039B000709561957F4F0895A1E21A2EAA1BBB1B3B
:1039C000FD010DC0AA1FBB1FEE1FFF1FA217B307EB
:1039D000E407F50720F0A21BB30BE40BF50B661F01
:1039E000771F881F991F1A9469F7609570958095C5
:1039F00090959B01AC01BD01CF010895052E97FB69
:103A00001EF400940E94151D57FD07D00E94DC1C77
:103A100007FC03D04EF40C94151D5095409530953D
:103A200021953F4F4F4F5F4F08959095809570952A
:103A300061957F4F8F4F9F4F0895EE0FFF1F881F97
:103A40008BBF0790F691E02D1994AA1BBB1B51E187
:103A500007C0AA1FBB1FA617B70710F0A61BB70BFE
:103A6000881F991F5A95A9F780959095BC01CD01A3
:103A700008950F931F93CF93DF938230910510F435
:103A800082E090E0E0910507F091060730E020E049
:103A9000B0E0A0E0309799F42115310509F44AC04F
:103AA000281B390B24303105D8F58A819B8161159B
:103AB000710589F1FB0193838283FE0111C040816E
:103AC00051810281138148175907E0F048175907BF
:103AD00099F4109761F012960C93129713961C9319
:103AE0003296CF01DF91CF911F910F9108950093EE
:103AF000050710930607F4CF2115310551F0421741
:103B0000530738F0A901DB019A01BD01DF01F8017B
:103B1000C1CFEF01F9CF9093060780930507CDCF72
:103B2000FE01E20FF31F81939193225031093983F3
:103B30002883D7CF2091030730910407232B41F42A
:103B400020910D0230910E02309304072093030759
:103B500020910B0230910C022115310541F42DB753
:103B60003EB740910F0250911002241B350BE0919B
:103B70000307F0910407E217F307A0F42E1B3F0B95
:103B80002817390778F0AC014E5F5F4F24173507CF
:103B900048F04E0F5F1F5093040740930307819333
:103BA00091939FCFF0E0E0E09CCFCF93DF9300971D
:103BB000E9F0FC01329713821282A0910507B091BF
:103BC0000607ED0130E020E01097A1F4208131815B
:103BD000820F931F2091030730910407281739079C
:103BE00009F061C0F0930407E0930307DF91CF91E0
:103BF0000895EA01CE17DF07E8F54A815B819E014F
:103C000041155105B1F7E901FB83EA8349915991C7
:103C1000C40FD51FEC17FD0761F4808191810296D6
:103C2000840F951FE90199838883828193819B8307
:103C30008A83F0E0E0E012968D919C9113970097B3
:103C4000B9F52D913C911197CD010296820F931FEA
:103C500020910307309104072817390739F6309768
:103C600051F51092060710920507B0930407A09330
:103C70000307BCCFD383C28340815181840F951F3A
:103C8000C817D90761F44E5F5F4F88819981480F4B
:103C9000591F518340838A819B819383828321159D
:103CA000310509F0B0CFF0930607E09305079ECFEA
:103CB000FD01DC01C0CF13821282D7CF4F925F92F9
:103CC0006F927F928F929F92AF92BF92CF92DF922C
:103CD000EF92FF920F931F93CF93DF938C01009786
:103CE00099F4CB01DF91CF911F910F91FF90EF904D
:103CF000DF90CF90BF90AF909F908F907F906F900C
:103D00005F904F900C94391DFC01E60FF71F9C014A
:103D100022503109E217F30708F4AEC0D901CD9162
:103D2000DC911197C617D70720F1C530D10578F07F
:103D3000CE0104978617970750F0C61BD70B229722
:103D4000C193D1936D937C93CF010E94D51DC8017F
:103D5000DF91CF911F910F91FF90EF90DF90CF9067
:103D6000BF90AF909F908F907F906F905F904F909B
:103D700008955B01AC1ABD0A4C018C0E9D1EA091EA
:103D80000507B0910607512C412CF12CE12C10971E
:103D900031F580910307909104078815990509F082
:103DA0005CC04616570608F058C080910B029091EF
:103DB0000C02009741F48DB79EB740910F025091CD
:103DC0001002841B950BE817F90708F055C0F09313
:103DD0000407E0930307F90171836083B8CF8D91E5
:103DE0009C91119712966C90129713967C90139752
:103DF000A815B90559F56C0142E0C40ED11CCA14CE
:103E0000DB0420F1AC014A195B09DA01129615971F
:103E100080F06282738251834083D9016D937C93D9
:103E2000E114F10471F0D7011396FC93EE9312970D
:103E30008ECF22968C0F9D1FF90191838083F30111
:103E4000EFCFF0930607E093050781CF4816590698
:103E500008F42C017D01D3019ACFCB010E94391DBA
:103E60007C01009749F0AE01B8010E943F1FC801D4
:103E70000E94D51D87016BCF10E000E068CFFB01E9
:103E8000DC0102C001900D9241505040D8F70895D6
:103E9000FB01DC018D91019080190110D9F3990B80
:103EA0000895FB01DC0101900D920020E1F70895D7
:043EB000F894FFCFB4
:103EB40035363738003132333400FF0000070780CD
:103EC40000000040001400540010000F000E001108
:103ED40000060002000300040005000700080009B2
:103EE400000A000B000C0000000000BF021F024C7F
:103EF400020C037D025B026F0200000000B1098422
:103F040009330A5A097D096A095B0900000000297E
:103F1400077804E903000000002C0A1F02330AECAE
:103F2400073938374243444531323334353637382C
:103F3400392A302320202020202020202020202047
:103F440020202020202020202020202000416363E6
:103F5400657373206772616E7465640041636365A1
:103F640073732064656E696564002153454355523B
:103F7400495459204D4F44452100300068616E6416
:103F84006C6550617373776F72642023000D0A00AF
:103F9400476F6F6462796500496E20626F75636C68
:103FA40065206E696768742000456E746572206EC2
:103FB400696768742070617373776F7264002A0094
:00000001FF
